:100000000C9463000C948B000C948B000C948B006C
:100010000C948B000C948B000C948B000C948B0034
:100020000C948B000C948B000C948B000C948B0024
:100030000C948B000C948B000C948B000C948B0014
:100040000C9482010C948B000C9475040C94A704FE
:100050000C948B000C948B000C948B000C948B00F4
:100060000C948B000C948B0000000008000201002F
:100070000003040700000000000000000102040863
:100080001020408001020408102001020408102002
:10009000040404040404040402020202020203032E
:1000A00003030303000000002300260029000000D2
:1000B0000000250028002B0000000000240027007D
:1000C0002A00B700D70411241FBECFEFD8E0DEBF4F
:1000D000CDBF11E0A0E0B1E0E2EBFCE002C0059092
:1000E0000D92A632B107D9F722E0A6E2B1E001C035
:1000F0001D92AC31B207E1F710E0C6ECD0E004C0CD
:100100002297FE010E945306C23CD107C9F70E9404
:100110001B050C9457060C94000026E040E855E2BD
:1001200060E070E08FE791E00C94130482E791E0C7
:100130000E946B014AE050E0BC018FE791E00E9411
:1001400016068EE691E00E946F01682F70E04AE08B
:1001500050E08FE791E00E94160686E691E00E944B
:10016000070168EE73E080E090E00C94EF010F93DC
:1001700040E050E06EE070E082E791E00E9479019B
:1001800040E050E062E070E08EE691E00E9479018C
:1001900000E020E032E042E050E06EE070E082E615
:1001A00091E00E940E0120E032E042E050E06EE07B
:1001B00070E086E591E00E940E0120E032E042E02E
:1001C00050E06EE070E08AE491E00E940E0120E0D1
:1001D00032E042E050E06EE070E08EE391E00E9499
:1001E0000E0120E032E042E050E06EE070E082E399
:1001F00091E00E940E0120E032E042E050E06EE02B
:1002000070E086E291E00E940E010F91089521E0D6
:10021000FC01248361E080810C94D1026F927F9273
:100220008F929F92AF92BF92CF92DF92EF92FF9206
:100230000F93CF93DF9300D000D01F92CDB7DEB7DE
:100240007C013B015A01490140E050E06EE070E062
:100250000E947901670184E0C80ED11C41E050E0A2
:100260006DE070E0C6010E94790140E050E0B3010A
:10027000CE0101960E94790189819A81AB81BC816E
:10028000F70180839183A283B38341E050E0B501FD
:10029000CE0101960E94790185E0FE013196D601DA
:1002A00001900D928A95E1F7F70192868186038786
:1002B0000F900F900F900F900F90DF91CF910F91B3
:1002C000FF90EF90DF90CF90BF90AF909F908F9076
:1002D0007F906F900895FC0180810C945202FC0184
:1002E00080810E94070321E0892B09F420E0822FFE
:1002F0000895FC01862F6083718342835383642FAA
:100300000C9498021F920F920FB60F9211242F9304
:100310003F938F939F93AF93BF9380917701909179
:100320007801A0917901B0917A013091760123E0B2
:10033000230F2D3720F40196A11DB11D05C026E81D
:10034000230F0296A11DB11D2093760180937701A2
:1003500090937801A0937901B0937A0180917B0109
:1003600090917C01A0917D01B0917E010196A11D2B
:10037000B11D80937B0190937C01A0937D01B0938C
:100380007E01BF91AF919F918F913F912F910F90DF
:100390000FBE0F901F9018953FB7F89480917B0186
:1003A00090917C01A0917D01B0917E0126B5A89B22
:1003B00005C02F3F19F00196A11DB11D3FBF662753
:1003C000782F892F9A2F620F711D811D911D42E098
:1003D000660F771F881F991F4A95D1F70895CF920E
:1003E000DF92EF92FF92CF93DF936B017C010E942B
:1003F000CC01EB01C114D104E104F10489F00E94A5
:100400002E060E94CC016C1B7D0B683E734090F35E
:1004100081E0C81AD108E108F108C851DC4FEACFE1
:10042000DF91CF91FF90EF90DF90CF900895789477
:1004300084B5826084BD84B5816084BD85B58260E9
:1004400085BD85B5816085BDEEE6F0E08081816087
:100450008083E1E8F0E01082808182608083808187
:1004600081608083E0E8F0E0808181608083E1EB5F
:10047000F0E0808184608083E0EBF0E08081816047
:100480008083EAE7F0E080818460808380818260FD
:1004900080838081816080838081806880831092E6
:1004A000C10008958E3008F08E50877020910401AD
:1004B00090E4299F90011124822B80937C008091ED
:1004C0007A00806480937A0080917A0086FDFCCF68
:1004D000809178002091790090E0922B08958330EC
:1004E00081F028F4813099F08230A1F008958730AE
:1004F000A9F08830B9F08430D1F4809180008F7DEC
:1005000003C0809180008F7780938000089584B528
:100510008F7702C084B58F7D84BD08958091B0002F
:100520008F7703C08091B0008F7D8093B0000895D5
:10053000CF93DF9390E0FC01E458FF4F2491FC013E
:10054000E057FF4F8491882349F190E0880F991F6D
:10055000FC01E854FF4FA591B49182559F4FFC01D7
:10056000C591D4919FB7611108C0F8948C912095E2
:1005700082238C93888182230AC0623051F4F894DC
:100580008C91322F309583238C938881822B8883A2
:1005900004C0F8948C91822B8C939FBFDF91CF91F4
:1005A00008950F931F93CF93DF931F92CDB7DEB7BC
:1005B000282F30E0F901E859FF4F8491F901E45800
:1005C000FF4F1491F901E057FF4F04910023C9F048
:1005D000882321F069830E946F026981E02FF0E097
:1005E000EE0FFF1FE255FF4FA591B4919FB7F8940E
:1005F0008C91611103C01095812301C0812B8C93D4
:100600009FBF0F90DF91CF911F910F910895CF93CE
:10061000DF93282F30E0F901E859FF4F8491F90169
:10062000E458FF4FD491F901E057FF4FC491CC2318
:1006300091F081110E946F02EC2FF0E0EE0FFF1F8E
:10064000EC55FF4FA591B4912C912D2381E090E0C2
:1006500021F480E002C080E090E0DF91CF91089526
:10066000FC01818D228D90E0805C9F4F821B91095F
:100670008F7399270895FC01918D828D981731F021
:10068000828DE80FF11D858D90E008958FEF9FEF2B
:100690000895FC01918D828D981761F0828DDF01A4
:1006A000A80FB11D5D968C91928D9F5F9F73928F65
:1006B00090E008958FEF9FEF08958DEC94E0892BE3
:1006C00049F080E090E0892B29F00E94CD0481114F
:1006D0000C9400000895FC01848DDF01A80FB11D6A
:1006E000A35ABF4F2C91848D90E001968F73992768
:1006F000848FA689B7892C93A089B1898C91806455
:100700008C93938D848D981306C00288F389E02D15
:1007100080818F7D80830895CF93DF93EC01888D56
:100720008823C9F0EA89FB89808185FD05C0A889F5
:10073000B9898C9186FD0FC00FB607FCF5CF80817B
:1007400085FFF2CFA889B9898C9185FFEDCFCE01C5
:100750000E946B03E7CFDF91CF910895CF92DF9294
:10076000FF920F931F93CF93DF931F92CDB7DEB706
:100770006C0181E0D60158968C9358975B969C91BA
:100780005B975C968C915C97981307C05096ED919F
:10079000FC915197808185FD2EC0F601038D10E0FC
:1007A0000F5F1F4F0F731127F02EF601848DF81283
:1007B00011C00FB607FCF9CFD6015096ED91FC9110
:1007C0005197808185FFF1CFC60169830E946B0339
:1007D0006981EBCF838DE80FF11DE35AFF4F6083F2
:1007E000D6015B960C935B975296ED91FC915397D3
:1007F000808180620CC0D6015696ED91FC9157978E
:1008000060835096ED91FC91519780818064808344
:1008100081E090E00F90DF91CF911F910F91FF90B9
:10082000DF90CF900895BF92CF92DF92EF92FF9228
:10083000CF93DF93EC016A017B01B22EE889F9893D
:1008400082E08083411581EE580761057105A1F0B2
:1008500060E079E08DE390E0A70196010E942F0609
:1008600021503109410951095695479537952795EA
:10087000211580E1380798F0E889F989108260E84D
:1008800074E88EE190E0A70196010E942F062150A6
:100890003109410951095695479537952795EC85BA
:1008A000FD853083EE85FF852083188EEC89FD89D8
:1008B000B082EA89FB89808180618083EA89FB8933
:1008C000808188608083EA89FB8980818068808359
:1008D000EA89FB8980818F7D8083DF91CF91FF90B2
:1008E000EF90DF90CF90BF9008951F920F920FB6B8
:1008F0000F9211242F938F939F93EF93FF93E09187
:100900008F01F09190018081E0919501F091960125
:1009100082FD12C09081809198018F5F8F7320912A
:100920009901821751F0E0919801F0E0E158FE4FF3
:10093000958F8093980101C08081FF91EF919F91E5
:100940008F912F910F900FBE0F901F9018951F92AF
:100950000F920FB60F9211242F933F934F935F93F3
:100960006F937F938F939F93AF93BF93EF93FF9377
:100970008FE791E00E946B03FF91EF91BF91AF91E0
:100980009F918F917F916F915F914F913F912F91A7
:100990000F900FBE0F901F9018958FE791E00E9467
:1009A000300321E0892B09F420E0822F0895109272
:1009B00082011092810188EE93E0A0E0B0E0809384
:1009C000830190938401A0938501B093860189E00F
:1009D00091E09093800180937F0185EC90E090936B
:1009E0008C0180938B0184EC90E090938E01809336
:1009F0008D0180EC90E09093900180938F0181ECC9
:100A000090E0909392018093910182EC90E090931A
:100A100094018093930186EC90E0909396018093EB
:100A20009501109298011092990110929A011092DA
:100A30009B01089508950E9417020E941A050E94C2
:100A40008D00CDE5D3E00E9496002097E1F30E944F
:100A50005D03F9CFCF92DF92EF92FF920F931F9336
:100A6000CF93DF937C016A01EB0100E010E00C15ED
:100A70001D0571F06991D701ED91FC910190F08114
:100A8000E02DC7010995892B19F00F5F1F4FEFCF9C
:100A9000C801DF91CF911F910F91FF90EF90DF90F0
:100AA000CF9008956115710581F0DB010D90002054
:100AB000E9F7AD0141505109461B570BDC01ED919F
:100AC000FC910280F381E02D099480E090E008958C
:100AD000DC01ED91FC910190F081E02D099465E13C
:100AE00071E00C9452058F929F92AF92BF92CF9279
:100AF000DF92EF92FF920F931F93CF93DF93CDB7C7
:100B0000DEB7A1970FB6F894DEBF0FBECDBF7C0154
:100B1000C42EE52FCB01D22E19A221E02D1510F005
:100B20002AE0D22E8E010F5D1F4F8D2C912CA12C0F
:100B3000B12C6C2D7E2FA50194010E942F068C2DC7
:100B4000D29E80191124015011098A3014F4805D5D
:100B500001C0895CF80180832115310541055105EB
:100B600021F0C22EE32FCA01E4CFB801C7010E94D1
:100B70005205A1960FB6F894DEBF0FBECDBFDF9130
:100B8000CF911F910F91FF90EF90DF90CF90BF908A
:100B9000AF909F908F900895CF92DF92EF92FF9247
:100BA0000F931F93CF93DF93EC016A017B01211513
:100BB000310579F4E881F9810190F081E02D642F0D
:100BC000DF91CF911F910F91FF90EF90DF90CF9029
:100BD00009942A303105E9F477FF1AC06DE20E94CA
:100BE00068058C0144275527BA014C195D096E0927
:100BF0007F092AE0CE010E947305800F911FDF91CB
:100C0000CF911F910F91FF90EF90DF90CF900895BB
:100C10002AE0B701A601CE01DF91CF911F910F917C
:100C2000FF90EF90DF90CF900C9473050F931F937C
:100C3000CF93DF93EC019A01AB01662757FD6095D6
:100C4000762F0E94CC058C01CE010E946F05800F8B
:100C5000911FDF91CF911F910F9108950895A1E207
:100C60001A2EAA1BBB1BFD010DC0AA1FBB1FEE1F26
:100C7000FF1FA217B307E407F50720F0A21BB30B71
:100C8000E40BF50B661F771F881F991F1A9469F7ED
:100C900060957095809590959B01AC01BD01CF0149
:100CA0000895EE0FFF1F0590F491E02D0994F8943C
:020CB000FFCF74
:100CB200010000000100000000AE032A05300349D4
:100CC200033B038C030D0A006E616E00696E6600C1
:060CD2006F7666002E00A3
:00000001FF
